{
  "address": "0x7Dc1994C199A93fC8A05570503E371e2ef6BE1a9",
  "abi": [
    {
      "inputs": [],
      "stateMutability": "nonpayable",
      "type": "constructor"
    },
    {
      "inputs": [
        {
          "internalType": "uint256",
          "name": "actual",
          "type": "uint256"
        },
        {
          "internalType": "uint256",
          "name": "expected",
          "type": "uint256"
        }
      ],
      "name": "Dcrowd_InsufficientAmount",
      "type": "error"
    },
    {
      "inputs": [
        {
          "internalType": "address",
          "name": "addr",
          "type": "address"
        }
      ],
      "name": "Dcrowd_InvalidAddress",
      "type": "error"
    },
    {
      "inputs": [
        {
          "internalType": "uint256",
          "name": "expires",
          "type": "uint256"
        }
      ],
      "name": "Dcrowd_InvalidExpires",
      "type": "error"
    },
    {
      "inputs": [
        {
          "internalType": "address",
          "name": "sender",
          "type": "address"
        }
      ],
      "name": "Dcrowd_NotProjectCreator",
      "type": "error"
    },
    {
      "inputs": [
        {
          "internalType": "uint256",
          "name": "projectId",
          "type": "uint256"
        }
      ],
      "name": "Dcrowd_ProjectAlreadyFunded",
      "type": "error"
    },
    {
      "inputs": [
        {
          "internalType": "uint256",
          "name": "projectId",
          "type": "uint256"
        }
      ],
      "name": "Dcrowd_ProjectFundingExpired",
      "type": "error"
    },
    {
      "inputs": [
        {
          "internalType": "uint256",
          "name": "projectId",
          "type": "uint256"
        }
      ],
      "name": "Dcrowd_ProjectNotExists",
      "type": "error"
    },
    {
      "inputs": [
        {
          "internalType": "uint256",
          "name": "projectId",
          "type": "uint256"
        }
      ],
      "name": "Dcrowd_ProjectNotFunded",
      "type": "error"
    },
    {
      "inputs": [
        {
          "internalType": "address",
          "name": "to",
          "type": "address"
        },
        {
          "internalType": "uint256",
          "name": "value",
          "type": "uint256"
        }
      ],
      "name": "Dcrowd_TransferFailed",
      "type": "error"
    },
    {
      "anonymous": false,
      "inputs": [
        {
          "indexed": true,
          "internalType": "address",
          "name": "creator",
          "type": "address"
        },
        {
          "indexed": false,
          "internalType": "uint8",
          "name": "rating",
          "type": "uint8"
        }
      ],
      "name": "CreatorRatingUpdated",
      "type": "event"
    },
    {
      "anonymous": false,
      "inputs": [
        {
          "indexed": true,
          "internalType": "address",
          "name": "to",
          "type": "address"
        },
        {
          "indexed": false,
          "internalType": "uint256",
          "name": "amount",
          "type": "uint256"
        }
      ],
      "name": "FeesWithdrawn",
      "type": "event"
    },
    {
      "anonymous": false,
      "inputs": [
        {
          "indexed": true,
          "internalType": "uint256",
          "name": "projectId",
          "type": "uint256"
        },
        {
          "indexed": true,
          "internalType": "address",
          "name": "funder",
          "type": "address"
        },
        {
          "indexed": false,
          "internalType": "uint256",
          "name": "amount",
          "type": "uint256"
        }
      ],
      "name": "FundingCancelled",
      "type": "event"
    },
    {
      "anonymous": false,
      "inputs": [
        {
          "indexed": true,
          "internalType": "uint256",
          "name": "projectId",
          "type": "uint256"
        },
        {
          "indexed": true,
          "internalType": "address",
          "name": "creator",
          "type": "address"
        },
        {
          "indexed": false,
          "internalType": "uint256",
          "name": "funds",
          "type": "uint256"
        }
      ],
      "name": "FundsCollected",
      "type": "event"
    },
    {
      "anonymous": false,
      "inputs": [
        {
          "indexed": true,
          "internalType": "address",
          "name": "previousOwner",
          "type": "address"
        },
        {
          "indexed": true,
          "internalType": "address",
          "name": "newOwner",
          "type": "address"
        }
      ],
      "name": "OwnershipTransferred",
      "type": "event"
    },
    {
      "anonymous": false,
      "inputs": [
        {
          "indexed": true,
          "internalType": "uint256",
          "name": "projectId",
          "type": "uint256"
        },
        {
          "indexed": true,
          "internalType": "address",
          "name": "creator",
          "type": "address"
        },
        {
          "indexed": true,
          "internalType": "uint64",
          "name": "expires",
          "type": "uint64"
        },
        {
          "indexed": false,
          "internalType": "uint256",
          "name": "goal",
          "type": "uint256"
        },
        {
          "indexed": false,
          "internalType": "string",
          "name": "uri",
          "type": "string"
        }
      ],
      "name": "ProjectCreated",
      "type": "event"
    },
    {
      "anonymous": false,
      "inputs": [
        {
          "indexed": true,
          "internalType": "uint256",
          "name": "projectId",
          "type": "uint256"
        },
        {
          "indexed": true,
          "internalType": "address",
          "name": "funder",
          "type": "address"
        },
        {
          "indexed": false,
          "internalType": "uint256",
          "name": "amount",
          "type": "uint256"
        }
      ],
      "name": "ProjectFunded",
      "type": "event"
    },
    {
      "inputs": [],
      "name": "FEE_DENOMINATOR",
      "outputs": [
        {
          "internalType": "uint16",
          "name": "",
          "type": "uint16"
        }
      ],
      "stateMutability": "view",
      "type": "function"
    },
    {
      "inputs": [
        {
          "internalType": "uint256",
          "name": "projectId",
          "type": "uint256"
        },
        {
          "internalType": "uint256",
          "name": "amount",
          "type": "uint256"
        }
      ],
      "name": "cancelFunding",
      "outputs": [],
      "stateMutability": "nonpayable",
      "type": "function"
    },
    {
      "inputs": [
        {
          "internalType": "uint256",
          "name": "projectId",
          "type": "uint256"
        }
      ],
      "name": "collectFunds",
      "outputs": [],
      "stateMutability": "nonpayable",
      "type": "function"
    },
    {
      "inputs": [
        {
          "internalType": "uint64",
          "name": "expires",
          "type": "uint64"
        },
        {
          "internalType": "uint256",
          "name": "goal",
          "type": "uint256"
        },
        {
          "internalType": "string",
          "name": "uri",
          "type": "string"
        }
      ],
      "name": "createProject",
      "outputs": [
        {
          "internalType": "uint256",
          "name": "",
          "type": "uint256"
        }
      ],
      "stateMutability": "nonpayable",
      "type": "function"
    },
    {
      "inputs": [
        {
          "internalType": "address",
          "name": "creator",
          "type": "address"
        }
      ],
      "name": "creatorRating",
      "outputs": [
        {
          "internalType": "uint8",
          "name": "",
          "type": "uint8"
        }
      ],
      "stateMutability": "view",
      "type": "function"
    },
    {
      "inputs": [],
      "name": "feeBalance",
      "outputs": [
        {
          "internalType": "uint256",
          "name": "",
          "type": "uint256"
        }
      ],
      "stateMutability": "view",
      "type": "function"
    },
    {
      "inputs": [
        {
          "internalType": "uint256",
          "name": "projectId",
          "type": "uint256"
        }
      ],
      "name": "fundProject",
      "outputs": [],
      "stateMutability": "payable",
      "type": "function"
    },
    {
      "inputs": [
        {
          "internalType": "address",
          "name": "funder",
          "type": "address"
        },
        {
          "internalType": "uint256",
          "name": "projectId",
          "type": "uint256"
        }
      ],
      "name": "funding",
      "outputs": [
        {
          "internalType": "uint256",
          "name": "",
          "type": "uint256"
        }
      ],
      "stateMutability": "view",
      "type": "function"
    },
    {
      "inputs": [],
      "name": "maxFundingPeriod",
      "outputs": [
        {
          "internalType": "uint64",
          "name": "",
          "type": "uint64"
        }
      ],
      "stateMutability": "view",
      "type": "function"
    },
    {
      "inputs": [],
      "name": "owner",
      "outputs": [
        {
          "internalType": "address",
          "name": "",
          "type": "address"
        }
      ],
      "stateMutability": "view",
      "type": "function"
    },
    {
      "inputs": [],
      "name": "platformFee",
      "outputs": [
        {
          "internalType": "uint16",
          "name": "",
          "type": "uint16"
        }
      ],
      "stateMutability": "view",
      "type": "function"
    },
    {
      "inputs": [],
      "name": "projectCounter",
      "outputs": [
        {
          "internalType": "uint256",
          "name": "",
          "type": "uint256"
        }
      ],
      "stateMutability": "view",
      "type": "function"
    },
    {
      "inputs": [
        {
          "internalType": "uint256",
          "name": "projectId",
          "type": "uint256"
        }
      ],
      "name": "projectInfo",
      "outputs": [
        {
          "components": [
            {
              "internalType": "address",
              "name": "creator",
              "type": "address"
            },
            {
              "internalType": "uint64",
              "name": "expires",
              "type": "uint64"
            },
            {
              "internalType": "bool",
              "name": "funded",
              "type": "bool"
            },
            {
              "internalType": "uint256",
              "name": "goal",
              "type": "uint256"
            },
            {
              "internalType": "uint256",
              "name": "balance",
              "type": "uint256"
            }
          ],
          "internalType": "struct IDcrowd.ProjectInfo",
          "name": "",
          "type": "tuple"
        }
      ],
      "stateMutability": "view",
      "type": "function"
    },
    {
      "inputs": [
        {
          "internalType": "uint256",
          "name": "projectId",
          "type": "uint256"
        }
      ],
      "name": "projectURI",
      "outputs": [
        {
          "internalType": "string",
          "name": "",
          "type": "string"
        }
      ],
      "stateMutability": "view",
      "type": "function"
    },
    {
      "inputs": [],
      "name": "renounceOwnership",
      "outputs": [],
      "stateMutability": "nonpayable",
      "type": "function"
    },
    {
      "inputs": [
        {
          "internalType": "address",
          "name": "newOwner",
          "type": "address"
        }
      ],
      "name": "transferOwnership",
      "outputs": [],
      "stateMutability": "nonpayable",
      "type": "function"
    },
    {
      "inputs": [
        {
          "internalType": "address",
          "name": "creator",
          "type": "address"
        },
        {
          "internalType": "uint8",
          "name": "rating",
          "type": "uint8"
        }
      ],
      "name": "updateCreatorRating",
      "outputs": [],
      "stateMutability": "nonpayable",
      "type": "function"
    },
    {
      "inputs": [
        {
          "internalType": "uint64",
          "name": "newMaxFundingPeriod",
          "type": "uint64"
        }
      ],
      "name": "updateMaxFundingPeriod",
      "outputs": [],
      "stateMutability": "nonpayable",
      "type": "function"
    },
    {
      "inputs": [
        {
          "internalType": "uint16",
          "name": "newPlatformFee",
          "type": "uint16"
        }
      ],
      "name": "updatePlatformFee",
      "outputs": [],
      "stateMutability": "nonpayable",
      "type": "function"
    },
    {
      "inputs": [
        {
          "internalType": "address",
          "name": "to",
          "type": "address"
        }
      ],
      "name": "withdrawFees",
      "outputs": [],
      "stateMutability": "nonpayable",
      "type": "function"
    }
  ],
  "transactionHash": "0x57eb8052f801d19b26d6c4011b043319abe92dfccdf04bc1af6161ba85246b50",
  "args": [],
  "numDeployments": 1,
  "solcInputHash": "4557d13ca8756caa1f684909d2baf25f",
  "bytecode": "0x60806040523480156200001157600080fd5b5062000032620000266200009160201b60201c565b6200009960201b60201c565b6001808190555060006002819055506283d600600460006101000a81548167ffffffffffffffff021916908367ffffffffffffffff1602179055506000600460086101000a81548161ffff021916908361ffff1602179055506200015d565b600033905090565b60008060009054906101000a900473ffffffffffffffffffffffffffffffffffffffff169050816000806101000a81548173ffffffffffffffffffffffffffffffffffffffff021916908373ffffffffffffffffffffffffffffffffffffffff1602179055508173ffffffffffffffffffffffffffffffffffffffff168173ffffffffffffffffffffffffffffffffffffffff167f8be0079c531659141344cd1fd0a4f28419497f9722a3daafe3b4186f6b6457e060405160405180910390a35050565b612740806200016d6000396000f3fe60806040526004361061011f5760003560e01c8063a7ba99b3116100a0578063d73792a911610064578063d73792a9146103b0578063dfe75b0a146103db578063f2fde38b14610418578063f8a518ed14610441578063fd75bdde1461046c5761011f565b8063a7ba99b3146102bb578063ad13e1d8146102e4578063afb0695214610321578063c9acbcf11461034a578063ca2f3d6c146103875761011f565b8063715018a6116100e7578063715018a6146101e857806379ebc6f0146101ff5780638da5cb5b1461023c5780639747e8d7146102675780639b710439146102925761011f565b8063164e68de1461012457806326232a2e1461014d578063597e47341461017857806360b71d4e146101a15780636c563abe146101cc575b600080fd5b34801561013057600080fd5b5061014b600480360381019061014691906119ce565b6104a9565b005b34801561015957600080fd5b50610162610681565b60405161016f9190611a18565b60405180910390f35b34801561018457600080fd5b5061019f600480360381019061019a9190611a69565b610699565b005b3480156101ad57600080fd5b506101b6610a88565b6040516101c39190611aa5565b60405180910390f35b6101e660048036038101906101e19190611a69565b610a92565b005b3480156101f457600080fd5b506101fd610dca565b005b34801561020b57600080fd5b5061022660048036038101906102219190611a69565b610dde565b6040516102339190611b50565b60405180910390f35b34801561024857600080fd5b50610251610e83565b60405161025e9190611b81565b60405180910390f35b34801561027357600080fd5b5061027c610eac565b6040516102899190611bbf565b60405180910390f35b34801561029e57600080fd5b506102b960048036038101906102b49190611c13565b610eca565b005b3480156102c757600080fd5b506102e260048036038101906102dd9190611c53565b610f7c565b005b3480156102f057600080fd5b5061030b60048036038101906103069190611c93565b6112df565b6040516103189190611aa5565b60405180910390f35b34801561032d57600080fd5b5061034860048036038101906103439190611cff565b61133a565b005b34801561035657600080fd5b50610371600480360381019061036c9190611a69565b611379565b60405161037e9190611ddc565b60405180910390f35b34801561039357600080fd5b506103ae60048036038101906103a99190611e23565b61145d565b005b3480156103bc57600080fd5b506103c5611491565b6040516103d29190611a18565b60405180910390f35b3480156103e757600080fd5b5061040260048036038101906103fd9190611eb5565b611497565b60405161040f9190611aa5565b60405180910390f35b34801561042457600080fd5b5061043f600480360381019061043a91906119ce565b6116e8565b005b34801561044d57600080fd5b5061045661176b565b6040516104639190611aa5565b60405180910390f35b34801561047857600080fd5b50610493600480360381019061048e91906119ce565b611775565b6040516104a09190611f38565b60405180910390f35b6104b16117cb565b6000600354905060008103610500578060016040517f5c52b39f0000000000000000000000000000000000000000000000000000000081526004016104f7929190611f98565b60405180910390fd5b600073ffffffffffffffffffffffffffffffffffffffff168273ffffffffffffffffffffffffffffffffffffffff160361057157816040517fa744eb120000000000000000000000000000000000000000000000000000000081526004016105689190611b81565b60405180910390fd5b600060038190555060008273ffffffffffffffffffffffffffffffffffffffff16826108fc906040516105a390611ff2565b600060405180830381858888f193505050503d80600081146105e1576040519150601f19603f3d011682016040523d82523d6000602084013e6105e6565b606091505b505090508061062e5782826040517fd71cc464000000000000000000000000000000000000000000000000000000008152600401610625929190612007565b60405180910390fd5b8273ffffffffffffffffffffffffffffffffffffffff167fc0819c13be868895eb93e40eaceb96de976442fa1d404e5c55f14bb65a8c489a836040516106749190611aa5565b60405180910390a2505050565b6000600460089054906101000a900461ffff16905090565b6002600154036106de576040517f08c379a00000000000000000000000000000000000000000000000000000000081526004016106d59061207c565b60405180910390fd5b60026001819055506000600560008381526020019081526020016000206040518060a00160405290816000820160009054906101000a900473ffffffffffffffffffffffffffffffffffffffff1673ffffffffffffffffffffffffffffffffffffffff1673ffffffffffffffffffffffffffffffffffffffff1681526020016000820160149054906101000a900467ffffffffffffffff1667ffffffffffffffff1667ffffffffffffffff16815260200160008201601c9054906101000a900460ff16151515158152602001600182015481526020016002820154815250509050806000015173ffffffffffffffffffffffffffffffffffffffff166107e2611849565b73ffffffffffffffffffffffffffffffffffffffff161461084157610805611849565b6040517f46fa9a8d0000000000000000000000000000000000000000000000000000000081526004016108389190611b81565b60405180910390fd5b80606001518160800151101561088e57816040517f5cc4c2570000000000000000000000000000000000000000000000000000000081526004016108859190611aa5565b60405180910390fd5b8060400151156108d557816040517f407e9f1d0000000000000000000000000000000000000000000000000000000081526004016108cc9190611aa5565b60405180910390fd5b600160056000848152602001908152602001600020600001601c6101000a81548160ff021916908315150217905550600061271061ffff16600460089054906101000a900461ffff1661ffff16836080015161093191906120cb565b61093b919061213c565b9050600081836080015161094f919061216d565b90506000836000015173ffffffffffffffffffffffffffffffffffffffff16826108fc9060405161097f90611ff2565b600060405180830381858888f193505050503d80600081146109bd576040519150601f19603f3d011682016040523d82523d6000602084013e6109c2565b606091505b5050905080610a0e578360000151826040517fd71cc464000000000000000000000000000000000000000000000000000000008152600401610a05929190612007565b60405180910390fd5b8260036000828254610a2091906121a1565b92505081905550836000015173ffffffffffffffffffffffffffffffffffffffff16857ff71d24bd1c42802c0769fbc8bbd984f37eb9aa46f81e27c1d69982de54c36f7584604051610a729190611aa5565b60405180910390a3505050506001808190555050565b6000600354905090565b6000600560008381526020019081526020016000206040518060a00160405290816000820160009054906101000a900473ffffffffffffffffffffffffffffffffffffffff1673ffffffffffffffffffffffffffffffffffffffff1673ffffffffffffffffffffffffffffffffffffffff1681526020016000820160149054906101000a900467ffffffffffffffff1667ffffffffffffffff1667ffffffffffffffff16815260200160008201601c9054906101000a900460ff1615151515815260200160018201548152602001600282015481525050905060003403610bb3573460016040517f5c52b39f000000000000000000000000000000000000000000000000000000008152600401610baa929190611f98565b60405180910390fd5b600073ffffffffffffffffffffffffffffffffffffffff16816000015173ffffffffffffffffffffffffffffffffffffffff1603610c2857816040517f0c42bfb9000000000000000000000000000000000000000000000000000000008152600401610c1f9190611aa5565b60405180910390fd5b80608001518160600151111580610c40575080604001515b15610c8257816040517f407e9f1d000000000000000000000000000000000000000000000000000000008152600401610c799190611aa5565b60405180910390fd5b42816020015167ffffffffffffffff161015610cd557816040517f756258e9000000000000000000000000000000000000000000000000000000008152600401610ccc9190611aa5565b60405180910390fd5b34600560008481526020019081526020016000206002016000828254610cfb91906121a1565b925050819055503460076000610d0f611849565b73ffffffffffffffffffffffffffffffffffffffff1673ffffffffffffffffffffffffffffffffffffffff16815260200190815260200160002060008481526020019081526020016000206000828254610d6991906121a1565b92505081905550610d78611849565b73ffffffffffffffffffffffffffffffffffffffff16827f6251418ffd7f504740544ec3d578897633e212c5d658b7dce793c5dc9d2e855e34604051610dbe9190611aa5565b60405180910390a35050565b610dd26117cb565b610ddc6000611851565b565b6060600660008381526020019081526020016000208054610dfe90612204565b80601f0160208091040260200160405190810160405280929190818152602001828054610e2a90612204565b8015610e775780601f10610e4c57610100808354040283529160200191610e77565b820191906000526020600020905b815481529060010190602001808311610e5a57829003601f168201915b50505050509050919050565b60008060009054906101000a900473ffffffffffffffffffffffffffffffffffffffff16905090565b6000600460009054906101000a900467ffffffffffffffff16905090565b610ed26117cb565b80600860008473ffffffffffffffffffffffffffffffffffffffff1673ffffffffffffffffffffffffffffffffffffffff16815260200190815260200160002060006101000a81548160ff021916908360ff1602179055508173ffffffffffffffffffffffffffffffffffffffff167f2d5108a5c80720799a18941d2dc7278820daa565a234a489495b2c411c08f30682604051610f709190611f38565b60405180910390a25050565b6000600560008481526020019081526020016000206040518060a00160405290816000820160009054906101000a900473ffffffffffffffffffffffffffffffffffffffff1673ffffffffffffffffffffffffffffffffffffffff1673ffffffffffffffffffffffffffffffffffffffff1681526020016000820160149054906101000a900467ffffffffffffffff1667ffffffffffffffff1667ffffffffffffffff16815260200160008201601c9054906101000a900460ff16151515158152602001600182015481526020016002820154815250509050600060076000611063611849565b73ffffffffffffffffffffffffffffffffffffffff1673ffffffffffffffffffffffffffffffffffffffff1681526020019081526020016000206000858152602001908152602001600020549050600073ffffffffffffffffffffffffffffffffffffffff16826000015173ffffffffffffffffffffffffffffffffffffffff160361112657836040517f0c42bfb900000000000000000000000000000000000000000000000000000000815260040161111d9190611aa5565b60405180910390fd5b81604001511561116d57836040517f407e9f1d0000000000000000000000000000000000000000000000000000000081526004016111649190611aa5565b60405180910390fd5b8281108061117b5750600083145b156111bf5782816040517f5c52b39f0000000000000000000000000000000000000000000000000000000081526004016111b6929190612235565b60405180910390fd5b60006111c9611849565b73ffffffffffffffffffffffffffffffffffffffff16846108fc906040516111f090611ff2565b600060405180830381858888f193505050503d806000811461122e576040519150601f19603f3d011682016040523d82523d6000602084013e611233565b606091505b505090508061128257611244611849565b846040517fd71cc464000000000000000000000000000000000000000000000000000000008152600401611279929190612007565b60405180910390fd5b61128a611849565b73ffffffffffffffffffffffffffffffffffffffff16857f75d4f5a77d373643b471d8ca29d7f81b3efb91c3ed98b51dca61afa33009b190866040516112d09190611aa5565b60405180910390a35050505050565b6000600760008473ffffffffffffffffffffffffffffffffffffffff1673ffffffffffffffffffffffffffffffffffffffff168152602001908152602001600020600083815260200190815260200160002054905092915050565b6113426117cb565b8061ffff1661271061ffff16101561135957600080fd5b80600460086101000a81548161ffff021916908361ffff16021790555050565b611381611915565b600560008381526020019081526020016000206040518060a00160405290816000820160009054906101000a900473ffffffffffffffffffffffffffffffffffffffff1673ffffffffffffffffffffffffffffffffffffffff1673ffffffffffffffffffffffffffffffffffffffff1681526020016000820160149054906101000a900467ffffffffffffffff1667ffffffffffffffff1667ffffffffffffffff16815260200160008201601c9054906101000a900460ff16151515158152602001600182015481526020016002820154815250509050919050565b6114656117cb565b80600460006101000a81548167ffffffffffffffff021916908367ffffffffffffffff16021790555050565b61271081565b6000428567ffffffffffffffff1610806114e557508467ffffffffffffffff16600460009054906101000a900467ffffffffffffffff1667ffffffffffffffff16426114e391906121a1565b105b1561152757846040517f01c2ff4400000000000000000000000000000000000000000000000000000000815260040161151e919061228f565b60405180910390fd5b60006002600081548092919061153c906122aa565b9190505590506040518060a00160405280611555611849565b73ffffffffffffffffffffffffffffffffffffffff1681526020018767ffffffffffffffff16815260200160001515815260200186815260200160008152506005600083815260200190815260200160002060008201518160000160006101000a81548173ffffffffffffffffffffffffffffffffffffffff021916908373ffffffffffffffffffffffffffffffffffffffff16021790555060208201518160000160146101000a81548167ffffffffffffffff021916908367ffffffffffffffff160217905550604082015181600001601c6101000a81548160ff021916908315150217905550606082015181600101556080820151816002015590505083836006600084815260200190815260200160002091826116769291906124ce565b508567ffffffffffffffff1661168a611849565b73ffffffffffffffffffffffffffffffffffffffff16827f911bad08a5ce7eddae220cbdf81cf4f8c6d1d46da57c785ddebefbfa1bf740e78888886040516116d4939291906125da565b60405180910390a480915050949350505050565b6116f06117cb565b600073ffffffffffffffffffffffffffffffffffffffff168173ffffffffffffffffffffffffffffffffffffffff160361175f576040517f08c379a00000000000000000000000000000000000000000000000000000000081526004016117569061267e565b60405180910390fd5b61176881611851565b50565b6000600254905090565b6000600860008373ffffffffffffffffffffffffffffffffffffffff1673ffffffffffffffffffffffffffffffffffffffff16815260200190815260200160002060009054906101000a900460ff169050919050565b6117d3611849565b73ffffffffffffffffffffffffffffffffffffffff166117f1610e83565b73ffffffffffffffffffffffffffffffffffffffff1614611847576040517f08c379a000000000000000000000000000000000000000000000000000000000815260040161183e906126ea565b60405180910390fd5b565b600033905090565b60008060009054906101000a900473ffffffffffffffffffffffffffffffffffffffff169050816000806101000a81548173ffffffffffffffffffffffffffffffffffffffff021916908373ffffffffffffffffffffffffffffffffffffffff1602179055508173ffffffffffffffffffffffffffffffffffffffff168173ffffffffffffffffffffffffffffffffffffffff167f8be0079c531659141344cd1fd0a4f28419497f9722a3daafe3b4186f6b6457e060405160405180910390a35050565b6040518060a00160405280600073ffffffffffffffffffffffffffffffffffffffff168152602001600067ffffffffffffffff16815260200160001515815260200160008152602001600081525090565b600080fd5b600080fd5b600073ffffffffffffffffffffffffffffffffffffffff82169050919050565b600061199b82611970565b9050919050565b6119ab81611990565b81146119b657600080fd5b50565b6000813590506119c8816119a2565b92915050565b6000602082840312156119e4576119e3611966565b5b60006119f2848285016119b9565b91505092915050565b600061ffff82169050919050565b611a12816119fb565b82525050565b6000602082019050611a2d6000830184611a09565b92915050565b6000819050919050565b611a4681611a33565b8114611a5157600080fd5b50565b600081359050611a6381611a3d565b92915050565b600060208284031215611a7f57611a7e611966565b5b6000611a8d84828501611a54565b91505092915050565b611a9f81611a33565b82525050565b6000602082019050611aba6000830184611a96565b92915050565b600081519050919050565b600082825260208201905092915050565b60005b83811015611afa578082015181840152602081019050611adf565b60008484015250505050565b6000601f19601f8301169050919050565b6000611b2282611ac0565b611b2c8185611acb565b9350611b3c818560208601611adc565b611b4581611b06565b840191505092915050565b60006020820190508181036000830152611b6a8184611b17565b905092915050565b611b7b81611990565b82525050565b6000602082019050611b966000830184611b72565b92915050565b600067ffffffffffffffff82169050919050565b611bb981611b9c565b82525050565b6000602082019050611bd46000830184611bb0565b92915050565b600060ff82169050919050565b611bf081611bda565b8114611bfb57600080fd5b50565b600081359050611c0d81611be7565b92915050565b60008060408385031215611c2a57611c29611966565b5b6000611c38858286016119b9565b9250506020611c4985828601611bfe565b9150509250929050565b60008060408385031215611c6a57611c69611966565b5b6000611c7885828601611a54565b9250506020611c8985828601611a54565b9150509250929050565b60008060408385031215611caa57611ca9611966565b5b6000611cb8858286016119b9565b9250506020611cc985828601611a54565b9150509250929050565b611cdc816119fb565b8114611ce757600080fd5b50565b600081359050611cf981611cd3565b92915050565b600060208284031215611d1557611d14611966565b5b6000611d2384828501611cea565b91505092915050565b611d3581611990565b82525050565b611d4481611b9c565b82525050565b60008115159050919050565b611d5f81611d4a565b82525050565b611d6e81611a33565b82525050565b60a082016000820151611d8a6000850182611d2c565b506020820151611d9d6020850182611d3b565b506040820151611db06040850182611d56565b506060820151611dc36060850182611d65565b506080820151611dd66080850182611d65565b50505050565b600060a082019050611df16000830184611d74565b92915050565b611e0081611b9c565b8114611e0b57600080fd5b50565b600081359050611e1d81611df7565b92915050565b600060208284031215611e3957611e38611966565b5b6000611e4784828501611e0e565b91505092915050565b600080fd5b600080fd5b600080fd5b60008083601f840112611e7557611e74611e50565b5b8235905067ffffffffffffffff811115611e9257611e91611e55565b5b602083019150836001820283011115611eae57611ead611e5a565b5b9250929050565b60008060008060608587031215611ecf57611ece611966565b5b6000611edd87828801611e0e565b9450506020611eee87828801611a54565b935050604085013567ffffffffffffffff811115611f0f57611f0e61196b565b5b611f1b87828801611e5f565b925092505092959194509250565b611f3281611bda565b82525050565b6000602082019050611f4d6000830184611f29565b92915050565b6000819050919050565b6000819050919050565b6000611f82611f7d611f7884611f53565b611f5d565b611a33565b9050919050565b611f9281611f67565b82525050565b6000604082019050611fad6000830185611a96565b611fba6020830184611f89565b9392505050565b600081905092915050565b50565b6000611fdc600083611fc1565b9150611fe782611fcc565b600082019050919050565b6000611ffd82611fcf565b9150819050919050565b600060408201905061201c6000830185611b72565b6120296020830184611a96565b9392505050565b7f5265656e7472616e637947756172643a207265656e7472616e742063616c6c00600082015250565b6000612066601f83611acb565b915061207182612030565b602082019050919050565b6000602082019050818103600083015261209581612059565b9050919050565b7f4e487b7100000000000000000000000000000000000000000000000000000000600052601160045260246000fd5b60006120d682611a33565b91506120e183611a33565b92508282026120ef81611a33565b915082820484148315176121065761210561209c565b5b5092915050565b7f4e487b7100000000000000000000000000000000000000000000000000000000600052601260045260246000fd5b600061214782611a33565b915061215283611a33565b9250826121625761216161210d565b5b828204905092915050565b600061217882611a33565b915061218383611a33565b925082820390508181111561219b5761219a61209c565b5b92915050565b60006121ac82611a33565b91506121b783611a33565b92508282019050808211156121cf576121ce61209c565b5b92915050565b7f4e487b7100000000000000000000000000000000000000000000000000000000600052602260045260246000fd5b6000600282049050600182168061221c57607f821691505b60208210810361222f5761222e6121d5565b5b50919050565b600060408201905061224a6000830185611a96565b6122576020830184611a96565b9392505050565b600061227961227461226f84611b9c565b611f5d565b611a33565b9050919050565b6122898161225e565b82525050565b60006020820190506122a46000830184612280565b92915050565b60006122b582611a33565b91507fffffffffffffffffffffffffffffffffffffffffffffffffffffffffffffffff82036122e7576122e661209c565b5b600182019050919050565b600082905092915050565b7f4e487b7100000000000000000000000000000000000000000000000000000000600052604160045260246000fd5b60008190508160005260206000209050919050565b60006020601f8301049050919050565b600082821b905092915050565b60006008830261238e7fffffffffffffffffffffffffffffffffffffffffffffffffffffffffffffffff82612351565b6123988683612351565b95508019841693508086168417925050509392505050565b60006123cb6123c66123c184611a33565b611f5d565b611a33565b9050919050565b6000819050919050565b6123e5836123b0565b6123f96123f1826123d2565b84845461235e565b825550505050565b600090565b61240e612401565b6124198184846123dc565b505050565b5b8181101561243d57612432600082612406565b60018101905061241f565b5050565b601f821115612482576124538161232c565b61245c84612341565b8101602085101561246b578190505b61247f61247785612341565b83018261241e565b50505b505050565b600082821c905092915050565b60006124a560001984600802612487565b1980831691505092915050565b60006124be8383612494565b9150826002028217905092915050565b6124d883836122f2565b67ffffffffffffffff8111156124f1576124f06122fd565b5b6124fb8254612204565b612506828285612441565b6000601f8311600181146125355760008415612523578287013590505b61252d85826124b2565b865550612595565b601f1984166125438661232c565b60005b8281101561256b57848901358255600182019150602085019450602081019050612546565b868310156125885784890135612584601f891682612494565b8355505b6001600288020188555050505b50505050505050565b82818337600083830152505050565b60006125b98385611acb565b93506125c683858461259e565b6125cf83611b06565b840190509392505050565b60006040820190506125ef6000830186611a96565b81810360208301526126028184866125ad565b9050949350505050565b7f4f776e61626c653a206e6577206f776e657220697320746865207a65726f206160008201527f6464726573730000000000000000000000000000000000000000000000000000602082015250565b6000612668602683611acb565b91506126738261260c565b604082019050919050565b600060208201905081810360008301526126978161265b565b9050919050565b7f4f776e61626c653a2063616c6c6572206973206e6f7420746865206f776e6572600082015250565b60006126d4602083611acb565b91506126df8261269e565b602082019050919050565b60006020820190508181036000830152612703816126c7565b905091905056fea2646970667358221220474f6a5eff568e4dbe631d50d5afbd2e9c285c1f46f1a865d1e777aca5ed7bac64736f6c63430008110033",
  "devdoc": {
    "kind": "dev",
    "methods": {
      "createProject(uint64,uint256,string)": {
        "params": {
          "expires": "UNIX timextamp, end of the funding period of the project."
        },
        "returns": {
          "_0": "Project ID"
        }
      },
      "owner()": {
        "details": "Returns the address of the current owner."
      },
      "renounceOwnership()": {
        "details": "Leaves the contract without owner. It will not be possible to call `onlyOwner` functions anymore. Can only be called by the current owner. NOTE: Renouncing ownership will leave the contract without an owner, thereby removing any functionality that is only available to the owner."
      },
      "transferOwnership(address)": {
        "details": "Transfers ownership of the contract to a new account (`newOwner`). Can only be called by the current owner."
      }
    },
    "version": 1
  },
  "userdoc": {
    "kind": "user",
    "methods": {},
    "version": 1
  },
  "storageLayout": {
    "storage": [
      {
        "astId": 7,
        "contract": "contracts/Dcrowd.sol:Dcrowd",
        "label": "_owner",
        "offset": 0,
        "slot": "0",
        "type": "t_address"
      },
      {
        "astId": 123,
        "contract": "contracts/Dcrowd.sol:Dcrowd",
        "label": "_status",
        "offset": 0,
        "slot": "1",
        "type": "t_uint256"
      },
      {
        "astId": 190,
        "contract": "contracts/Dcrowd.sol:Dcrowd",
        "label": "_projectCounter",
        "offset": 0,
        "slot": "2",
        "type": "t_uint256"
      },
      {
        "astId": 192,
        "contract": "contracts/Dcrowd.sol:Dcrowd",
        "label": "_feeBalance",
        "offset": 0,
        "slot": "3",
        "type": "t_uint256"
      },
      {
        "astId": 194,
        "contract": "contracts/Dcrowd.sol:Dcrowd",
        "label": "_maxFundingPeriod",
        "offset": 0,
        "slot": "4",
        "type": "t_uint64"
      },
      {
        "astId": 196,
        "contract": "contracts/Dcrowd.sol:Dcrowd",
        "label": "_platformFee",
        "offset": 8,
        "slot": "4",
        "type": "t_uint16"
      },
      {
        "astId": 201,
        "contract": "contracts/Dcrowd.sol:Dcrowd",
        "label": "_projectInfos",
        "offset": 0,
        "slot": "5",
        "type": "t_mapping(t_uint256,t_struct(ProjectInfo)827_storage)"
      },
      {
        "astId": 205,
        "contract": "contracts/Dcrowd.sol:Dcrowd",
        "label": "_uris",
        "offset": 0,
        "slot": "6",
        "type": "t_mapping(t_uint256,t_string_storage)"
      },
      {
        "astId": 211,
        "contract": "contracts/Dcrowd.sol:Dcrowd",
        "label": "_fundings",
        "offset": 0,
        "slot": "7",
        "type": "t_mapping(t_address,t_mapping(t_uint256,t_uint256))"
      },
      {
        "astId": 215,
        "contract": "contracts/Dcrowd.sol:Dcrowd",
        "label": "_creatorRatings",
        "offset": 0,
        "slot": "8",
        "type": "t_mapping(t_address,t_uint8)"
      }
    ],
    "types": {
      "t_address": {
        "encoding": "inplace",
        "label": "address",
        "numberOfBytes": "20"
      },
      "t_bool": {
        "encoding": "inplace",
        "label": "bool",
        "numberOfBytes": "1"
      },
      "t_mapping(t_address,t_mapping(t_uint256,t_uint256))": {
        "encoding": "mapping",
        "key": "t_address",
        "label": "mapping(address => mapping(uint256 => uint256))",
        "numberOfBytes": "32",
        "value": "t_mapping(t_uint256,t_uint256)"
      },
      "t_mapping(t_address,t_uint8)": {
        "encoding": "mapping",
        "key": "t_address",
        "label": "mapping(address => uint8)",
        "numberOfBytes": "32",
        "value": "t_uint8"
      },
      "t_mapping(t_uint256,t_string_storage)": {
        "encoding": "mapping",
        "key": "t_uint256",
        "label": "mapping(uint256 => string)",
        "numberOfBytes": "32",
        "value": "t_string_storage"
      },
      "t_mapping(t_uint256,t_struct(ProjectInfo)827_storage)": {
        "encoding": "mapping",
        "key": "t_uint256",
        "label": "mapping(uint256 => struct IDcrowd.ProjectInfo)",
        "numberOfBytes": "32",
        "value": "t_struct(ProjectInfo)827_storage"
      },
      "t_mapping(t_uint256,t_uint256)": {
        "encoding": "mapping",
        "key": "t_uint256",
        "label": "mapping(uint256 => uint256)",
        "numberOfBytes": "32",
        "value": "t_uint256"
      },
      "t_string_storage": {
        "encoding": "bytes",
        "label": "string",
        "numberOfBytes": "32"
      },
      "t_struct(ProjectInfo)827_storage": {
        "encoding": "inplace",
        "label": "struct IDcrowd.ProjectInfo",
        "members": [
          {
            "astId": 818,
            "contract": "contracts/Dcrowd.sol:Dcrowd",
            "label": "creator",
            "offset": 0,
            "slot": "0",
            "type": "t_address"
          },
          {
            "astId": 820,
            "contract": "contracts/Dcrowd.sol:Dcrowd",
            "label": "expires",
            "offset": 20,
            "slot": "0",
            "type": "t_uint64"
          },
          {
            "astId": 822,
            "contract": "contracts/Dcrowd.sol:Dcrowd",
            "label": "funded",
            "offset": 28,
            "slot": "0",
            "type": "t_bool"
          },
          {
            "astId": 824,
            "contract": "contracts/Dcrowd.sol:Dcrowd",
            "label": "goal",
            "offset": 0,
            "slot": "1",
            "type": "t_uint256"
          },
          {
            "astId": 826,
            "contract": "contracts/Dcrowd.sol:Dcrowd",
            "label": "balance",
            "offset": 0,
            "slot": "2",
            "type": "t_uint256"
          }
        ],
        "numberOfBytes": "96"
      },
      "t_uint16": {
        "encoding": "inplace",
        "label": "uint16",
        "numberOfBytes": "2"
      },
      "t_uint256": {
        "encoding": "inplace",
        "label": "uint256",
        "numberOfBytes": "32"
      },
      "t_uint64": {
        "encoding": "inplace",
        "label": "uint64",
        "numberOfBytes": "8"
      },
      "t_uint8": {
        "encoding": "inplace",
        "label": "uint8",
        "numberOfBytes": "1"
      }
    }
  }
}